{
    "_format": "hh-sol-artifact-1",
    "contractName": "Products",
    "sourceName": "contracts/Products.sol",
    "abi": [
        {
            "inputs": [],
            "stateMutability": "nonpayable",
            "type": "constructor"
        },
        {
            "inputs": [
                {
                    "internalType": "uint256",
                    "name": "_id",
                    "type": "uint256"
                },
                {
                    "internalType": "string",
                    "name": "_ipfsLink",
                    "type": "string"
                }
            ],
            "name": "addProduct",
            "outputs": [],
            "stateMutability": "nonpayable",
            "type": "function"
        },
        {
            "inputs": [
                {
                    "internalType": "uint256",
                    "name": "_id",
                    "type": "uint256"
                }
            ],
            "name": "getProductDetails",
            "outputs": [
                {
                    "internalType": "string",
                    "name": "",
                    "type": "string"
                }
            ],
            "stateMutability": "view",
            "type": "function"
        },
        {
            "inputs": [],
            "name": "getProductId",
            "outputs": [
                {
                    "internalType": "uint256",
                    "name": "",
                    "type": "uint256"
                }
            ],
            "stateMutability": "view",
            "type": "function"
        },
        {
            "inputs": [],
            "name": "maxProductID",
            "outputs": [
                {
                    "internalType": "uint256",
                    "name": "",
                    "type": "uint256"
                }
            ],
            "stateMutability": "view",
            "type": "function"
        },
        {
            "inputs": [
                {
                    "internalType": "uint256",
                    "name": "",
                    "type": "uint256"
                }
            ],
            "name": "products",
            "outputs": [
                {
                    "internalType": "string",
                    "name": "",
                    "type": "string"
                }
            ],
            "stateMutability": "view",
            "type": "function"
        },
        {
            "inputs": [
                {
                    "internalType": "uint256",
                    "name": "_id",
                    "type": "uint256"
                },
                {
                    "internalType": "string",
                    "name": "_ipfsLink",
                    "type": "string"
                }
            ],
            "name": "updateProduct",
            "outputs": [],
            "stateMutability": "nonpayable",
            "type": "function"
        }
    ],
    "bytecode": "0x608060405234801561001057600080fd5b5060018081905550610bea806100276000396000f3fe608060405234801561001057600080fd5b50600436106100625760003560e01c806323cd950a14610067578063522ae8b6146100835780636813b53b1461009f5780637ac87732146100cf5780637acc0b20146100ed57806390f2f29b1461011d575b600080fd5b610081600480360381019061007c91906105db565b61013b565b005b61009d600480360381019061009891906105db565b610200565b005b6100b960048036038101906100b49190610637565b6102b2565b6040516100c691906106e3565b60405180910390f35b6100d761039b565b6040516100e49190610714565b60405180910390f35b61010760048036038101906101029190610637565b6103a5565b60405161011491906106e3565b60405180910390f35b610125610445565b6040516101329190610714565b60405180910390f35b60008190506000815111610184576040517f08c379a000000000000000000000000000000000000000000000000000000000815260040161017b9061077b565b60405180910390fd5b600083116101c7576040517f08c379a00000000000000000000000000000000000000000000000000000000081526004016101be906107e7565b60405180910390fd5b8160008085815260200190815260200160002090816101e69190610a13565b50600180546101f59190610b14565b600181905550505050565b60008190506000815111610249576040517f08c379a00000000000000000000000000000000000000000000000000000000081526004016102409061077b565b60405180910390fd5b600154831061028d576040517f08c379a000000000000000000000000000000000000000000000000000000000815260040161028490610b94565b60405180910390fd5b8160008085815260200190815260200160002090816102ac9190610a13565b50505050565b60606001548211156102f9576040517f08c379a00000000000000000000000000000000000000000000000000000000081526004016102f090610b94565b60405180910390fd5b600080838152602001908152602001600020805461031690610836565b80601f016020809104026020016040519081016040528092919081815260200182805461034290610836565b801561038f5780601f106103645761010080835404028352916020019161038f565b820191906000526020600020905b81548152906001019060200180831161037257829003601f168201915b50505050509050919050565b6000600154905090565b600060205280600052604060002060009150905080546103c490610836565b80601f01602080910402602001604051908101604052809291908181526020018280546103f090610836565b801561043d5780601f106104125761010080835404028352916020019161043d565b820191906000526020600020905b81548152906001019060200180831161042057829003601f168201915b505050505081565b60015481565b6000604051905090565b600080fd5b600080fd5b6000819050919050565b6104728161045f565b811461047d57600080fd5b50565b60008135905061048f81610469565b92915050565b600080fd5b600080fd5b6000601f19601f8301169050919050565b7f4e487b7100000000000000000000000000000000000000000000000000000000600052604160045260246000fd5b6104e88261049f565b810181811067ffffffffffffffff82111715610507576105066104b0565b5b80604052505050565b600061051a61044b565b905061052682826104df565b919050565b600067ffffffffffffffff821115610546576105456104b0565b5b61054f8261049f565b9050602081019050919050565b82818337600083830152505050565b600061057e6105798461052b565b610510565b90508281526020810184848401111561059a5761059961049a565b5b6105a584828561055c565b509392505050565b600082601f8301126105c2576105c1610495565b5b81356105d284826020860161056b565b91505092915050565b600080604083850312156105f2576105f1610455565b5b600061060085828601610480565b925050602083013567ffffffffffffffff8111156106215761062061045a565b5b61062d858286016105ad565b9150509250929050565b60006020828403121561064d5761064c610455565b5b600061065b84828501610480565b91505092915050565b600081519050919050565b600082825260208201905092915050565b60005b8381101561069e578082015181840152602081019050610683565b60008484015250505050565b60006106b582610664565b6106bf818561066f565b93506106cf818560208601610680565b6106d88161049f565b840191505092915050565b600060208201905081810360008301526106fd81846106aa565b905092915050565b61070e8161045f565b82525050565b60006020820190506107296000830184610705565b92915050565b7f49504653204c696e6b2063616e277420626520656d7074790000000000000000600082015250565b600061076560188361066f565b91506107708261072f565b602082019050919050565b6000602082019050818103600083015261079481610758565b9050919050565b7f4944206973207265717569726564000000000000000000000000000000000000600082015250565b60006107d1600e8361066f565b91506107dc8261079b565b602082019050919050565b60006020820190508181036000830152610800816107c4565b9050919050565b7f4e487b7100000000000000000000000000000000000000000000000000000000600052602260045260246000fd5b6000600282049050600182168061084e57607f821691505b60208210810361086157610860610807565b5b50919050565b60008190508160005260206000209050919050565b60006020601f8301049050919050565b600082821b905092915050565b6000600883026108c97fffffffffffffffffffffffffffffffffffffffffffffffffffffffffffffffff8261088c565b6108d3868361088c565b95508019841693508086168417925050509392505050565b6000819050919050565b600061091061090b6109068461045f565b6108eb565b61045f565b9050919050565b6000819050919050565b61092a836108f5565b61093e61093682610917565b848454610899565b825550505050565b600090565b610953610946565b61095e818484610921565b505050565b5b818110156109825761097760008261094b565b600181019050610964565b5050565b601f8211156109c75761099881610867565b6109a18461087c565b810160208510156109b0578190505b6109c46109bc8561087c565b830182610963565b50505b505050565b600082821c905092915050565b60006109ea600019846008026109cc565b1980831691505092915050565b6000610a0383836109d9565b9150826002028217905092915050565b610a1c82610664565b67ffffffffffffffff811115610a3557610a346104b0565b5b610a3f8254610836565b610a4a828285610986565b600060209050601f831160018114610a7d5760008415610a6b578287015190505b610a7585826109f7565b865550610add565b601f198416610a8b86610867565b60005b82811015610ab357848901518255600182019150602085019450602081019050610a8e565b86831015610ad05784890151610acc601f8916826109d9565b8355505b6001600288020188555050505b505050505050565b7f4e487b7100000000000000000000000000000000000000000000000000000000600052601160045260246000fd5b6000610b1f8261045f565b9150610b2a8361045f565b9250828201905080821115610b4257610b41610ae5565b5b92915050565b7f50726f64756374204944206e6f7420666f756e64000000000000000000000000600082015250565b6000610b7e60148361066f565b9150610b8982610b48565b602082019050919050565b60006020820190508181036000830152610bad81610b71565b905091905056fea26469706673582212204515baf1f6b9ae37a4ccba726e25db0e27849113806ea7b8c4c677c92f9da1e864736f6c63430008110033",
    "linkReferences": {},
    "deployedLinkReferences": {}
}